:020000041000EA
:1000000000B5324B212058609868022188439860DF
:10001000D860186158612E4B002199600221596106
:100020000121F02299502B49196001219960352056
:1000300000F044F80222904214D00621196600F024
:1000400034F8196E01211966002018661A6600F04E
:100050002CF8196E196E196E052000F02FF8012189
:100060000842F9D1002199601B49196000215960AB
:100070001A491B48016001219960EB211966A021F2
:10008000196600F012F800219960164914480160C1
:100090000121996001BC002800D000471248134993
:1000A000086003C880F30888084703B5996A0420EC
:1000B0000142FBD001200142F8D103BD02B5186610
:1000C0001866FFF7F2FF186E186E02BD00000240BE
:1000D000000000180000070000035F00212200005C
:1000E000F4000018222000A00001001008ED00E03C
:1000F00000000000000000000000000074B24E7A12
:1001000000200420F7010010C3010010C5010010F9
:10011000C1010010C1010010C1010010C101001097
:10012000C1010010C1010010C1010010C701001081
:10013000C1010010C1010010C9010010CB01001065
:10014000CD010010CD010010CD010010CD01001037
:10015000CD010010CD010010CD010010CD01001027
:10016000CD010010CD010010CD010010CD01001017
:10017000CD010010CD010010CD010010CD01001007
:10018000CD010010CD010010CD010010CD010010F7
:10019000CD010010CD010010CD010010CD010010E7
:1001A000CD010010CD010010CD010010CD010010D7
:1001B000CD010010CD010010CD010010CD010010C7
:1001C00000BE00BE00BE00BE00BE00BE00F04BF888
:1001D000103800BEF2EB88717030031090300310BD
:1001E0003402001090A31AE700202149086006C8D5
:1001F00081F3088810471F48006800282FD10DA4FC
:100200000ECC002902D000F012F8F9E71A491B4A77
:10021000002000E001C19142FCD1194988471949E9
:1002200088471949884700BEFDE701C901C29A42C3
:10023000FBD3704790300310C0000020302800200E
:100240000058031000000420000004200058031090
:1002500000100420001004200000000070470B482C
:100260001FF02EFB0047EFF30580C0B2704700007F
:1002700008ED00E0000000D0302800207C45002080
:10028000DDCD011081A7011031CF011057560000BC
:1002900005005250DE65F468005803100600525005
:1002A0005422A29DB013031006005250861C030274
:1002B000BC13031006005250ABB36053CC130310B1
:1002C000F8B5C0460448054B10B5834203D0044B33
:1002D000002B00D0984710BD302800203028002087
:1002E0000000000006480749091A8910CB0F591869
:1002F00010B5491003D0044B002B00D0984710BD17
:1003000030280020302800200000000010B5074CE5
:100310002378002B09D1FFF7D5FF054B002B02D026
:10032000044800E000BF0123237010BD38290020DD
:100330000000000058CE0210054B10B5002B03D072
:100340000449054800E000BFFFF7CCFF10BDC046E0
:10035000000000003C29002058CE021080B582B079
:1003600000AF7860034B7A681A60C046BD4602B0A1
:1003700080BDC0466035002080B582B000AF786097
:100380007B68002B05DB7B68042B02DC034B7A685F
:100390001A60C046BD4602B080BDC046900600202F
:1003A0000FB490B583B000AF1C23FB187B60114BDA
:1003B0001B685A680F4B1B681B680F491800904751
:1003C0000C4B1B689C680B4B1B681B687A68B969EF
:1003D0001800A047074B1B68DA68064B1B681B68B0
:1003E00018009047C046BD4603B090BC08BC04B09E
:1003F0001847C0466035002058CE02100FB490B5A3
:1004000083B000AF144B1B68022B1EDD1C23FB18AE
:100410007B60124B1B685A68104B1B681B681049A5
:10042000180090470D4B1B689C680C4B1B681B68A1
:100430007A68B9691800A047084B1B68DA68074B4F
:100440001B681B681800904700E0C046BD4603B01B
:1004500090BC08BC04B0184790060020603500200E
:1004600060CE02100FB490B583B000AF144B1B6880
:10047000002B1EDD1C23FB187B60124B1B685A6887
:10048000104B1B681B681049180090470D4B1B68E8
:100490009C680C4B1B681B687A68B9691800A047F8
:1004A000084B1B68DA68074B1B681B6818009047ED
:1004B00000E0C046BD4603B090BC08BC04B018477D
:1004C000900600206035002070CE02100FB490B569
:1004D00083B000AF144B1B68012B1EDD1C23FB18DF
:1004E0007B60124B1B685A68104B1B681B681049D5
:1004F000180090470D4B1B689C680C4B1B681B68D1
:100500007A68B9691800A047084B1B68DA68074B7E
:100510001B681B681800904700E0C046BD4603B04A
:1005200090BC08BC04B0184790060020603500203D
:1005300078CE021080B582B000AF0200BB1D1A80D9
:10054000BB1D1B88304A934206D8BB1D1B88180070
:1005500026F06AFF030053E0BB1D1B882B4A934221
:1005600038D02A4A934214DC182B47D046DD284A5B
:10057000934233D0264A934203DC264A934223D047
:100580003DE0254A934221D0FB22920093421FD0A6
:1005900035E0224A934227D0204A934206DC204A83
:1005A00093421DD01E4A93421CDC15E01D4A934223
:1005B0001ED01C4A934219DBFD229200934219D0AF
:1005C000194A934218D01AE0184B19E0184B17E05B
:1005D000184B15E0184B13E0184B11E0184B0FE0C7
:1005E000184B0DE0184B0BE0184B09E0184B07E0D7
:1005F000184B05E0184B03E0184B01E0C046002300
:100600001800BD4602B080BDE7030000ED03000006
:10061000EA030000E9030000EB030000F10300001F
:10062000EF030000F3030000F503000080CE02108A
:1006300098CE0210A4CE0210B4CE0210C8CE021082
:10064000E4CE0210F4CE021008CF02101CCF02102C
:1006500034CF02104CCF021064CF02107CCF0210B6
:1006600080B582B000AF0C2020F04CFA03007B6014
:100670007B680C220021180020F06EFA7B681800BD
:10068000BD4602B080BD80B582B000AF78607B68A7
:10069000002B03D07B68180020F049FAC046BD4605
:1006A00002B080BD0EB480B585B000AF7860202365
:1006B000FB18FB60FA68FB691100180020F068FD68
:1006C000064B1B689B68180025F014FBC046BD460E
:1006D00005B080BC08BC03B01847C046001E00200F
:1006E00080B584B000AFF860B9607A607A68BB68A2
:1006F0001100180020F04CFD044B1B689B6818008B
:1007000025F0F8FAC046BD4604B080BD001E0020AA
:1007100080B582B000AF7860034B180020F03EFC3B
:10072000C046BD4602B080BD94CF021080B584B0F3
:1007300000AF78607B68FB60284B1B68002B09DAF0
:10074000002020F075FD0200244B1A60FA200021E1
:100750001BF03EFB214B1B68013303DA1F4B0122C8
:1007600052421A601D4B1B68032B0AD1FB681B68A1
:10077000002B2CD0FB681A68FB685B681800904758
:1007800025E0164B1B68132B21D1FB689B68002BBF
:100790001DD0FB689B685B78002B18D00F4B0122A3
:1007A00052421A60FA2020F043FD0300BB60BB6890
:1007B000002BF7DBBB68032B09D1FB681B68002B00
:1007C00005D0FB681A68FB685B6818009047034B0C
:1007D0001B681800BD4604B080BDC04694060020CA
:1007E00080B582B000AF786039603B68180020F0B7
:1007F000C1FBC046BD4602B080BD000080B584B0DC
:1008000000AF78607B681800FFF790FF0300FB6083
:10081000FB68002BF6DB044B012252421A60FB6896
:100820001800BD4604B080BD9406002090B585B088
:1008300000AF786039603B68002B05DA7B681800F0
:10084000FFF7DCFF030019E00023FB6009E0FA2357
:100850009B000024180021001BF0BAFAFB6801334A
:10086000FB60002020F0E4FC0300BB60BB68002BB1
:1008700003DAFA683B689A42E9DBBB681800BD46B8
:1008800005B090BD90B585B000AF78607B6818006A
:10089000FFF7B4FF02000F217B181A707B181B783A
:1008A0001B2B00D0F9E07B6864211800FFF7BEFF26
:1008B00002000E217B181A707B181B78FF2B01D1C8
:1008C0001B2311E10E23FB181B785B2B00D0E2E009
:1008D0007B681800FFF792FF02000D217B181A7049
:1008E0007B181B782F2B00D8BAE00D23FB181B7840
:1008F000392B00D9B4E07B681800FFF77FFF0200B6
:100900000C217B181A707B181B787E2B19D10D23B4
:10091000FB181B78303B062B00D9BBE09A00744BC8
:10092000D3181B689F46734BDEE0734BDCE0FC235F
:100930009B00D9E07F23D7E0FB239B00D4E06F4BE3
:10094000D2E00C23FB181B783B2B00D0A2E00D2338
:10095000FB181B78312B00D080E07B681800FFF774
:100960004DFF02000B243B191A707B681800FFF73B
:1009700045FF02000A23FB181A703B191B78352B20
:1009800018D10A23FB181B78413B072B00D981E0C3
:100990009A005B4BD3181B689F465A4BA4E05A4BF6
:1009A000A2E0FD239B009FE0584B9DE0584B9BE04D
:1009B000584B99E00B23FB181B78322B19D10A23D3
:1009C000FB181B78413B072B00D963E09A00524B80
:1009D000D3181B689F46FF239B0085E04F4B83E0A5
:1009E0004F4B81E04F4B7FE08023DB007CE04E4BA0
:1009F0007AE00B23FB181B78362B17D10A23FB1840
:100A00001B78413B072B45D89A00484BD3181B68ED
:100A10009F46474B68E0474B66E0474B64E08123C5
:100A2000DB0061E0454B5FE0454B5DE00A23FB18CE
:100A30001B78413B072B2DD89A00424BD3181B68DB
:100A40009F46414B50E0FA239B004DE03F4B4BE06B
:100A50003F4B49E0284B47E0264B45E01B2343E052
:100A60000D23FB181B78413B192B14D89A00394BE6
:100A7000D3181B689F46344B36E0FA239B0033E0C3
:100A8000324B31E0324B2FE01B4B2DE0194B2BE06A
:100A9000314B29E0C0461B2326E00F23FB181B78AF
:100AA000082B01D108231FE00F23FB181B787F2B95
:100AB00001D17F2318E00F23FB181B78032B02D1F1
:100AC000FA23DB0010E00F23FB181B78042B01D165
:100AD000224B09E00F23FB181B780D2B01D10A23B1
:100AE00002E00F23FB181B781800BD4605B090BD2F
:100AF0009CCF0210EF030000EE030000ED030000A6
:100B0000B8CF0210F1030000F2030000F30300006D
:100B1000F5030000F6030000D8CF0210FD0300002B
:100B2000FF030000FE03000001040000F8CF0210E4
:100B30000604000007040000090400000A04000085
:100B40000B04000018D00210E9030000EB030000C2
:100B5000EA03000038D0021002040000D1070000B0
:100B600080B588B000AFF860B9607A601F23FB18C9
:100B700001221A70FB6818000CF066FC03007B6110
:100B80007A69BB689A4220DA0023BB6114E0BA6933
:100B9000FB68110018000CF06FFC02007B6811006C
:100BA000180026F061FA031E03D11F23FB18002250
:100BB0001A70BB690133BB61BA697B699A4204DA76
:100BC0001F23FB181B78002BE1D11F23FB181B7878
:100BD000002B1BD07A69BB689A420CDBFB680021B2
:100BE00018000CF049FC03003B613A69FB681100F6
:100BF00018000CF05FFC7B68180026F09BFA0300DD
:100C00001A00FB68110018000CF0F4FBC046BD464A
:100C100008B080BDB0B5AEB000AFF860B9607A6022
:100C20003B60FB683B660023B422BA181360B32311
:100C3000FB1800221A70B223FB1801221A70B1238C
:100C4000FB1800221A700CF073FC0300AC22BA18D7
:100C500013600023A822BA18136001235B42A42268
:100C6000BA18136000F02DFDFB681800FFF70AFEAC
:100C70000300FB65FA6DFA23DB009A420DD1B22323
:100C8000FB1801221A70B323FB1801221A70B1233A
:100C9000FB1801221A7000F014FDFB6DCD4A93423F
:100CA0000ED1B223FB1800221A70B323FB180122C5
:100CB0001A70B122BB18BA1812781A7000F001FD30
:100CC000FB6D7F2B02D0FB6D082B71D1B423FB1879
:100CD0001B68002B5BDDB4243B191B68013B3A19F0
:100CE00013603B191A68AC257B191B6811001800AA
:100CF0000CF092FFFB6808211800FFF771FD7B19CB
:100D00001B6818000CF04EFC0300BB617B191B68CC
:100D100018000CF08BFC03007B613B191B68A022C0
:100D2000BA18136010E0A0243B191B68BA69D318E5
:100D30001B781A00FB6811001800FFF751FD3B19E2
:100D40001B6801333A191360A023FB181A687B69EA
:100D50009A42E8DBFB6820211800FFF741FDB4232D
:100D6000FB181B689C22BA1813600AE0FB68082174
:100D70001800FFF735FD9C22BB181B680133BA1819
:100D800013609C23FB181A687B699A42EEDDB3223C
:100D9000BB18BA1812781A70B222BB18BA18127897
:100DA0001A70B122BB18BA1812781A7000F089FCB8
:100DB000FB6D0A2B0FD1B323FB1801221A70B2224C
:100DC000BB18BA1812781A70B122BB18BA18127868
:100DD0001A7000F076FCFB6D7F4A934220D1B42359
:100DE000FB181B68002B0ADDB422BB181B68013BF3
:100DF000BA181360FB6808211800FFF7F1FCB32252
:100E0000BB18BA1812781A70B222BB18BA18127826
:100E10001A70B122BB18BA1812781A7000F051FC7F
:100E2000FB6D6E4A934267D1B423FB181B68012BFC
:100E300009D10023B422BA181360FB6808211800F6
:100E4000FFF7CEFC47E0AC23FB181B6818000CF042
:100E5000A9FB0300FB610AE0B422BB181B68013B3D
:100E6000BA181360FB6808211800FFF7B9FCB42317
:100E7000FB181B68002B1ADDB423FB181B68013B11
:100E8000FA69D3181B785A1C554BD3181B781A00D3
:100E900008231340E0D10AE0B422BB181B68013BD1
:100EA000BA181360FB6808211800FFF799FCB423F7
:100EB000FB181B68002B0EDDB423FB181B68013BDD
:100EC000FA69D3181B785A1C454BD3181B781A00A3
:100ED00008231340E0D0B322BB18BA1812781A7056
:100EE000B222BB18BA1812781A70B122BB18BA18FD
:100EF00012781A7000F0E5FBFA6DFD239B009A4210
:100F000000D06FE0AC23FB181B6818000CF04AFB04
:100F100003003B6210E0B4243B191B683A6AD31803
:100F20001B781A00FB6811001800FFF759FC3B19E9
:100F30001B6801333A191360B423FB181B683A6A23
:100F4000D3181B78002B1FD0B423FB181B683A6AF8
:100F5000D3181B785A1C224BD3181B781A0008236D
:100F60001340D8D010E0B4243B191B683A6AD31858
:100F70001B781A00FB6811001800FFF731FC3B19C1
:100F80001B6801333A191360B423FB181B683A6AD3
:100F9000D3181B78002B0DD0B423FB181B683A6ABA
:100FA000D3181B785A1C0E4BD3181B781A00082331
:100FB0001340D8D1B322BB18BA1812781A70B222D3
:100FC000BB18BA1812781A70B122BB18BA18127866
:100FD0001A7076E3D1070000EA030000F303000073
:100FE000641B0310FB6DD64A934235D1AC243B19E8
:100FF0001B6818000CF0D6FA0300BB623B191B6893
:1010000018000CF013FB03007B62B423FB181A6872
:101010007B6A9A4210DAB4243B191B68BA6AD31867
:101020001B781A00FB6811001800FFF7D9FB3B1969
:101030001B6801333A191360B322BB18BA1812782F
:101040001A70B222BB18BA1812781A70B122BB18E3
:10105000BA1812781A7034E3FB6DBA4A934200D082
:101060000CE1C02308229446BC4463441B68002B57
:101070000FD1B322BB18BA1812781A70B222BB185B
:10108000BA1812781A70B122BB18BA1812781A70EE
:1010900017E3A423FB181B68002B0FD1B322BB1846
:1010A000BA1812781A70B222BB18BA1812781A70CD
:1010B000B122BB18BA1812781A7002E3C0230822B2
:1010C0009446BC4463441B6818000CF0BDF903004F
:1010D000BB63BB6B002B0FD1B322BB18BA181278BD
:1010E0001A70B222BB18BA1812781A70B122BB1843
:1010F000BA1812781A70E4E2A423FB181B680133B3
:1011000018D1A823FB181B68002B0DD1AC23FB18AA
:101110001B6818000CF046FA0300180026F00AF8C5
:101120000300A822BA181360BB6B013BA422BA18B3
:10113000136005E0A422BB181B68013BBA181360BA
:10114000AC23FB181B6818000CF070FA03007B63DB
:10115000A423FB181A68C02308218C46BC446344AE
:101160001B68110018000CF087F903003B633B6B10
:10117000180026F071F90300FB6200239822BA18C8
:1011800013600AE0FB6808211800FFF729FB98228A
:10119000BB181B680133BA1813609823FB181A6830
:1011A000B423FB181B689A42ECDB00239422BA1884
:1011B000136010E094243B191B683A6BD3181B781A
:1011C0001A00FB6811001800FFF70AFB3B191B68A7
:1011D00001333A1913609423FB181A68FB6A9A4288
:1011E000E8DBFB6A9022BA1813600AE0FB68202152
:1011F0001800FFF7F5FA9022BB181B680133BA18E4
:1012000013609023FB181A687B6B9A42EEDBFB6A33
:101210008C22BA1813600AE0FB6808211800FFF757
:10122000DFFA8C22BB181B680133BA1813608C23B9
:10123000FB181A687B6B9A42EEDBFB6AB422BA1881
:101240001360AC243B191B6818000CF093F93B6B3E
:1012500018000CF079F903003A191360B322BB1897
:10126000BA1812781A70B222BB18BA1812781A700B
:10127000B122BB18BA1812781A7022E2FA6DFA235A
:101280009B009A4200D008E1C02308229446BC4447
:1012900063441B68002B0FD1B322BB18BA18127815
:1012A0001A70B222BB18BA1812781A70B122BB1881
:1012B000BA1812781A7004E2C02308229446BC447B
:1012C00063441B6818000CF0BFF803007B64A42380
:1012D000FB181B68002B0FDAB322BB18BA18127860
:1012E0001A70B222BB18BA1812781A70B122BB1841
:1012F000BA1812781A70E4E1134B8822BA181360F6
:101300008723FB1800221A707B6C013BA422BA18B9
:1013100012689A421AD101235B42A422BA181360C0
:10132000A823FB181B68002B2AD0A823FB181B68D6
:101330008822BA1813608723FB1801221A701FE055
:10134000EB030000E903000098CF02108723FB188D
:1013500000221A70A422BB181B680133B9180B6055
:10136000BB181A68C02308218C46BC4463441B6820
:10137000110018000CF080F803008822BA181360DE
:10138000AC23FB181B6818000CF050F903003B64F9
:101390008823FB181B68180026F05EF80300FB6327
:1013A00000238022BA1813600AE0FB6808211800A5
:1013B000FFF716FA8022BB181B680133BA181360B6
:1013C0008023FB181A68B423FB181B689A42ECDBD5
:1013D0000023FB670EE0FB6F8822BA181268D3184F
:1013E0001B781A00FB6811001800FFF7F9F9FB6F72
:1013F0000133FB67FA6FFB6B9A42ECDBFB6BBB675D
:1014000007E0FB6820211800FFF7EAF9BB6F013302
:10141000BB67BA6F3B6C9A42F3DBFB6B7B6707E001
:10142000FB6808211800FFF7DBF97B6F01337B674E
:101430007A6F3B6C9A42F3DBFB6BB422BA181360F1
:10144000AC243B191B6818000CF094F88823FB1897
:101450001B6818000CF078F803003A191360872312
:10146000FB181B78002B08D0A8243B191B68180018
:101470001FF05DFB00233A191360B322BB18BA18A2
:1014800012781A70B222BB18BA1812781A70B122E8
:10149000BB18BA1812781A7013E1FB6DB34A934265
:1014A00029D1B423FB181B68002B14DD00233B67F4
:1014B00007E0FB6808211800FFF792F93B6F013342
:1014C0003B673A6FB423FB181B689A42F1DB002399
:1014D000B422BA181360B322BB18BA1812781A7063
:1014E000B222BB18BA1812781A70B122BB18BA18F7
:1014F00012781A70E5E0FB6D9D4A934238D1AC2416
:101500003B191B6818000CF04DF80300FB643B19F5
:101510001B6818000CF08AF80300BB64B423FB18A6
:101520001B68FB660CE0FB6EFA6CD3181B781A0084
:10153000FB6811001800FFF753F9FB6E0133FB66DF
:10154000FA6EBB6C9A42EEDBBB6CB422BA18136025
:10155000B322BB18BA1812781A70B222BB18BA1884
:1015600012781A70B122BB18BA1812781A70A8E053
:10157000AC23FB181B6818000CF058F80300BB657F
:101580007B68013BB3217A18791809781170B22170
:101590007A18791809781170B1217A1879180978B0
:1015A0001170BA6D9A4200DB8BE0FB6DFF2B02DC01
:1015B000FB6D1F2B11DCB322BB18BA1812781A70FE
:1015C000B222BB18BA1812781A70B122BB18BA1816
:1015D00012781A70FB6D082B73D1FB6DDAB2B4244C
:1015E0003B191968AC257B191B6818000CF0FCFA34
:1015F0003B191B6801333A1913607B191B681800EB
:101600000CF014F803007B657B6D013B3A191268FE
:101610009A4217DBFB6DDBB21A00FB681100180061
:10162000FFF7DEF8B322BB18BA1812781A70B2228C
:10163000BB18BA1812781A70B122BB18BA181278EF
:101640001A703EE0AC23FB181B6818000BF0AAFFD1
:1016500003003B65B423FB181B68013BBB660CE031
:10166000BB6E3A6DD3181B781A00FB681100180086
:10167000FFF7B6F8BB6E0133BB66BA6E7B6D9A425C
:10168000EEDBB423FB181B687B6607E0FB680821D0
:101690001800FFF7A5F87B6E01337B66B322BB18F9
:1016A000BA1812781A70B222BB18BA1812781A70C7
:1016B000B122BB18BA1812781A707A6E7B6D9A42F2
:1016C000E4DBB323FB181B78002B01D1FFF7CCFA26
:1016D000AC243B191B6818000BF064FF01007A680A
:1016E000BB68180025F00EFF3B191B6818000BF0B3
:1016F00041FFA823FB181B68002B05D0A823FB186B
:101700001B6818001FF013FA3B6E1B681800FEF7E9
:10171000FFFF01235B42A422BA181360B123FB1818
:101720001B78002B01D0134B1BE0B223FB181B7856
:10173000002B14D0C02308229446BC4463441B6889
:10174000002B0AD0BA683968C02308208446BC44FC
:1017500063441B681800FFF703FA002301E0FB2332
:101760009B001800BD462EB0B0BDC046EE03000081
:10177000EF030000EB03000080B586B000AFF86017
:10178000B9607A60FB687B617B69BA681A607B69C3
:101790007A685A60C046BD4606B080BD80B582B04A
:1017A00000AF786039607B683A689A60C046BD4691
:1017B00002B080BD80B582B000AF786039603B6810
:1017C0007A681A603B680F4A5A603B680E4A9A6012
:1017D0003B680E4ADA603B680D4A1A613B680D4A65
:1017E0005A613B680C4A9A613B680C4A1A623B6832
:1017F0000B4ADA613B680B4A5A62C046BD4602B0EA
:1018000080BDC046A5060010E106001011070010BB
:10181000E1070010150C0010850800102D070010BE
:101820002D0800107917001080B586B000AF7860E1
:101830007B683A21180025F0ADFB03007B617B69D2
:10184000002B23D013217B187A6812781A707B182A
:101850001B785A1C114BD3181B781A000323134012
:10186000022B04D11323FB181B78203B02E0132327
:10187000FB181B78413BFB60FB68002B02DBFB681D
:10188000102B01DD064B04E0FB6802E001F012FFC3
:1018900003001800BD4606B080BDC046641B03109F
:1018A00013FCFFFF80B586B000AF78607B683A21FB
:1018B000180025F06FFB03007B617B69002B23D0B0
:1018C00013217B187A6812781A707B181B785A1CBF
:1018D000104BD3181B781A0003231340022B04D19A
:1018E0001323FB181B78203B02E01323FB181B7803
:1018F000413BFB60FB68002B02DBFB68102B01DD2A
:10190000054B03E0FB6801E001235B421800BD4684
:1019100006B080BD641B031013FCFFFF80B584B0CC
:1019200000AF78607B683A21180025F033FB030094
:10193000FB60FB68002B02D0FB68013300E07B6892
:101940001800BD4604B080BD90B58BB000AFF86004
:10195000B9607A603B60BB6800221A70FB681800AF
:10196000FFF7A0FF03007B627B6A002B05DB7B6A2D
:10197000DBB24133DAB2BB681A7010243B190F2274
:10198000002118001FF0E8F8FB681800FFF7C6FFF9
:1019900001003B190C22180025F0B4FD3B19002270
:1019A0005A733B1918000CF047F93B192E21180007
:1019B00025F0EEFD03003B623B6A002B19D03B6A29
:1019C00000221A701023F9187B680822180025F0ED
:1019D00099FD7B68083300221A703B6A591C3B68EA
:1019E0000322180025F08EFD3B68033300221A7095
:1019F0000DE01023F9187B680822180025F082FDFD
:101A00007B68083300221A703B6800221A70C046B7
:101A1000BD460BB090BD0000B0B5C6B000AF786059
:101A200079680C243B19FF22180025F06BFD2D4B23
:101A30008C2252009446BC446344FF2200219954F6
:101A40003B1918000CF0F8F83A19274B1100180050
:101A5000FEF7D4FC3B191800FFF7E6FE03008A22CC
:101A60005200B9180B60BB181B68002B0BDA24F06E
:101A70007DF803008A225200BA18126852421A6096
:101A800001235B4229E00C23FB181800FFF746FFF7
:101A9000030088225200B9180B608A235B00FB18F0
:101AA0001B68DBB287256D007C19BA18126811001B
:101AB000180001F07DFE030023807B191B88002B9A
:101AC0000AD024F053F8030087225200BA18128873
:101AD0001A6001235B4200E000231800BD4646B0B7
:101AE000B0BDC046F4FEFFFFA0D0021090B5C9B053
:101AF00000AF786039603A687968534B1800FEF798
:101B00007DFC79680C243B19FF22180025F0FAFCB3
:101B10004E4B902252009446BC446344FF22002165
:101B200099543B1918000CF087F800238E225200BC
:101B3000BA1813603B198C225200BA1813603B1973
:101B40003A21180025F026FA030088225200B9181D
:101B50000B60BB181B68002B2ED01021FF317B18A7
:101B60003A4A902040008446BC44624412781A707D
:101B70007B181B785A1C364BD3181B781A0003238A
:101B80001340022B05D11023FF33FB181B78203B99
:101B900003E01023FF33FB181B78413B8A225200DD
:101BA000BA18136088235B00FB181B6801338C2272
:101BB0005200BA18136006E001F07CFD03008A228F
:101BC0005200BA1813608A2464003B191A688C23E7
:101BD0005B00FB1819681F4B1800FEF70FFC3B1940
:101BE0001B68002B05DB8A235B00FB181B68102B8E
:101BF0000ADD23F0BBFF0300174A1A6001235B4292
:101C00008E225200BA1813608E235B00FB181B68EB
:101C1000002B11D18A235B00FB181B68DBB23A68EA
:101C20008C21490079180968180001F06DFD030046
:101C30008E225200BA1813608E235B00FB181B68BB
:101C40001800BD4649B090BDB4D00210ECFEFFFFB5
:101C5000641B0310D4D00210ED03000080B582B0E5
:101C600000AF78607B68180001F068FD0300180081
:101C7000BD4602B080BD80B584B000AFF860B960E9
:101C80007A607A68B968FB68180001F069FD0300A2
:101C90001800BD4604B080BD80B584B000AFF860C8
:101CA000B9607A607A68B968FB68180001F06CFD69
:101CB00003001800BD4604B080BD0000F0B5C64664
:101CC00000B588B000AFF860B9607A60FE68BC68A3
:101CD00090E27B681022134018D01F217B182A1C29
:101CE0001A707B181B785A1CAA4BD3181B781A0041
:101CF00003231340012B04D11F23FB181B7820332F
:101D000002E01F23FB181B78DBB200E02B001D0054
:101D10002B003F2B0AD003DC2A2B00D179E040E2D4
:101D20005B2B00D113E15C2B29D03AE22378002B06
:101D300002D101235B4273E27B680822134005D085
:101D400023782F2B02D101235B4269E27B680422B6
:101D5000134000D148E223782E2B00D044E2BB6828
:101D60009C4209D07B680822134000D13CE2631EEC
:101D70001B782F2B00D037E201235B4250E27B68B7
:101D80000222134021D133005E1C1D787B68102293
:101D9000134018D01E217B182A1C1A707B181B7840
:101DA0005A1C7C4BD3181B781A0003231340012BB9
:101DB00004D11E23FB181B78203302E01E23FB18DE
:101DC0001B78DBB200E02B001D007B681022134063
:101DD00017D01D217B1822781A707B181B785A1C8B
:101DE0006C4BD3181B781A0003231340012B04D12A
:101DF0001D23FB181B78203304E01D23FB181B78E0
:101E000000E023782A00934200D1EFE101235B42F6
:101E100006E27B680422134010D023782E2B0DD1CC
:101E2000BB689C4207D07B680822134006D0631E23
:101E30001B782F2B02D101235B42F1E133005E1CA2
:101E40001D7812E07B680822134002D023782F2BE4
:101E500004D03F2D05D12378002B02D101235B4212
:101E6000DEE133005E1C1D7801343F2DEAD02A2DBF
:101E7000E8D0002D01D10023D2E17B68022213407B
:101E800003D15C2D01D1327800E02A001723FB1822
:101E90001A707B68102213401AD016217B18172263
:101EA000BA1812781A707B181B785A1C394BD31841
:101EB0001B781A0003231340012B04D11623FB18AF
:101EC0001B78203302E01623FB181B78DBB202E0FC
:101ED0001723FB181B781722BA181370013E30E045
:101EE0005B2D21D07B681022134017D015217B1861
:101EF00022781A707B181B785A1C264BD3181B7833
:101F00001A0003231340012B04D11523FB181B785F
:101F1000203304E01523FB181B7800E023781722F8
:101F2000BA18127893420BD17B68042293431A00AB
:101F300021003000FFF7C2FE031E01D100236FE134
:101F400001342378002BCBD101235B4268E1237855
:101F5000002B02D101235B4262E17B680422134023
:101F600010D023782E2B0DD1BB689C4207D07B6804
:101F70000822134006D0631E1B782F2B02D10123A9
:101F80005B424DE13378212B02D033785E2B03D1B5
:101F9000012302E0641B0310002398464346002BF4
:101FA00000D0013633005E1C1D783D6028007B6840
:101FB0000222134005D15C2D03D133005E1C1B7837
:101FC0003B607B681022134018D01C217B183A68B4
:101FD0001A707B181B785A1C944BD3181B781A0064
:101FE00003231340012B04D11C23FB181B7820333F
:101FF00002E01C23FB181B78DBB200E03B681800F2
:102000003B60002D02D101235B4209E133005E1CDD
:102010001D787B681022134018D01B217B182A1CC6
:102020001A707B181B785A1C804BD3181B781A0027
:1020300003231340012B04D11B23FB181B782033EF
:1020400002E01B23FB181B78DBB200E02B001D0015
:102050007B680822134004D02F2D02D101235B425C
:10206000DEE02D2D38D133785D2B35D033005E1C6A
:102070001B7818007B680222134006D103005C2BFA
:1020800003D133005E1C1B781800031E02D101230C
:102090005B42C5E07B681022134018D01A217B18E0
:1020A000021C1A707B181B785A1C604BD3181B78C3
:1020B0001A0003231340012B04D11A23FB181B78A9
:1020C000203302E01A23FB181B78DBB200E0030088
:1020D000180033005E1C1D787B681022134017D057
:1020E00019217B1822781A707B181B785A1C4F4BC9
:1020F000D3181B781A0003231340012B04D1192392
:10210000FB181B78203304E01923FB181B7800E030
:1021100023783A6893421FDB7B681022134017D064
:1021200018217B1822781A707B181B785A1C3F4B99
:10213000D3181B781A0003231340012B04D1182352
:10214000FB181B78203304E01823FB181B7800E0F1
:1021500023780200934209DD5D2D00D025E7C046BB
:102160004346002B44D101235B4259E0C0460EE0B8
:10217000002D02D101235B4252E033005E1C1D782A
:102180007B680222134002D15C2D00D101365D2D07
:10219000EED14346002B02D001235B4240E0C04613
:1021A00027E029007B681022134017D014203B1829
:1021B00022781A703B181B785A1C1C4BD3181B78BA
:1021C0001A0003231340012B04D11423FB181B789E
:1021D000203304E01423FB181B7800E023788B42A3
:1021E00007D001235B421BE0C04602E0C04600E08E
:1021F000C046013433005E1C1D78002D00D068E518
:102200002378002B01D100230AE07B6801221340D0
:1022100004D023782F2B01D1002301E001235B425E
:102220001800BD4608B004BC9046F0BD641B031006
:1022300080B582B000AF7860396079683B68002271
:102240001800FFF73BFD03005A425341DBB2180070
:10225000BD4602B080BD000090B58C4CA54400AFD7
:10226000786039607A688224A4003B191100180054
:1022700024F03EFF3B1918000BF0DEFC844BFB18EA
:1022800000221A703B192F21180025F081F9030054
:10229000C4229200B9180B60BB181B68002B1BD01E
:1022A000C42189007B181B6800221A707B181B68E8
:1022B0000133C7229200BA18136082239B00FA18D8
:1022C00084235B00FB181100180024F011FF704BF1
:1022D000FB1801221A7045E082239B00FB183A216B
:1022E000180025F055F90300C3229200B9180B60BD
:1022F000BB181B68002B26D0C32189007B181B68E4
:1023000000221A707B181B680133C7229200BA188A
:10231000136082239B00FA18842464003B19110087
:10232000180024F0E5FE3B19180025F095F803008D
:102330001A003B199A18574B1000190002231A0073
:102340001EF010FC0EE082239B00FB18C7229200B7
:10235000BA181360504BC82292009446BC446344A0
:1023600000221A704D4BFB1800221A7084235B0068
:10237000FB18180000F096F80300C2229200B9186A
:102380000B60BB181B68002B6AD0C2239B00FB1894
:102390001B68180000F0FBF80300C5229200BA1871
:1023A000136050E0C5239B00FB181B68C7229200F6
:1023B000BA18126811001800FFF73AFF031E36D052
:1023C00084235B00FA180823FB181100180024F07E
:1023D0008FFE2F4BFB181B78002B0FD008243B19C6
:1023E000180025F039F803001A003B199A182C4BF5
:1023F0001000190002231A001EF0B4FBC5239B0035
:10240000FB181A6808243B191100180024F09AFDE3
:102410003B19180024F08EFE03001A003B681100DF
:1024200018000AF0E7FF1D4BFB1801221A70C223A7
:102430009B00FB181B68180000F0A9F80300C522D8
:102440009200BA181360C5239B00FB181B68002B71
:10245000A8D1C2239B00FB181B68180000F076F877
:102460000E4BFB181B78002B0AD17B68180024F058
:1024700061FE03001A003B68110018000AF0BAFF61
:10248000C046BD46C9239B009D4490BDDCFCFFFFB8
:102490001B030000E8D00210E8FDFFFF1A03000054
:1024A000ECD0021090B5C5B000AF78607968082410
:1024B0003B19FF22180025F025F8224B88225200F4
:1024C0009446BC446344FF22002199543B191800F0
:1024D0000BF0B2FB3A191C4B11001800FDF78EFFF0
:1024E0003B191800FFF7A0F9030086225200B91823
:1024F0000B60BB181B68002B0ADA23F037FB0300C4
:1025000086225200BA18126852421A60002315E05F
:102510000823FB181800FFF701FA03008422520079
:10252000B9180B6086235B00FB181B68DBB2BA1876
:1025300012681100180001F051F903001800BD469F
:1025400045B090BDF8FEFFFFF0D00210B0B584B0EA
:1025500000AF78600023FB600A257C197B681800B7
:1025600001F052F9030023807B191B88002B09D04E
:1025700023F0FCFA03000A22BA1812881A60012319
:102580005B42FB60FB681800BD4604B0B0BD80B57F
:1025900082B000AF78607B68180001F047F9030053
:1025A0001800BD4602B080BD80B584B000AFF860B1
:1025B000B9607A607A68B968FB68180001F048F978
:1025C00003001800BD4604B080BDB0B584B000AFB4
:1025D000786039600E257C193A687B681100180014
:1025E00001F074F9030023807B191B88002B02D0B3
:1025F00001235B4200E000231800BD4604B0B0BDDB
:102600000EB480B585B000AF78602023FB18FB6066
:10261000FA68FB69110018001EF0BAFDC046BD46FD
:1026200005B080BC08BC03B01847000080B58CB072
:1026300000AF7860396004201EF064FA0300FB628A
:10264000FB6A002B00D190E0FB6A012252421A6023
:102650000023BB620C23FB1800221A703B68180091
:1026600024F0FAFE0300FB6100237B6200233B623F
:102670001BE03B6A3A68D3181B78622B0CD03B6A8C
:102680003A68D31819780C23FA187B6AD3180A1CF5
:102690001A707B6A01337B620C23FA187B6AD318A9
:1026A00000221A703B6A01333B623A6AFB699A4224
:1026B000DFDB304A0C23FB181100180024F0D4FC97
:1026C000031E02D10023BB623AE02B4A0C23FB1805
:1026D0001100180024F0C8FC031E02D10223BB62C3
:1026E0002EE0264A0C23FB181100180024F0BCFC35
:1026F000031E02D1224BBB6222E0224A0C23FB18AC
:102700001100180024F0B0FC031E02D11E4BBB6266
:1027100016E01E4A0C23FB181100180024F0A4FC3C
:10272000031E02D11A4BBB620AE01A4A0C23FB18A3
:102730001100180024F098FC031E01D1164BBB6257
:10274000BA6A7B6811001800FFF7D0F90300BB617B
:10275000BB69002B03DBFB6ABA691A6005E0FB6A00
:1027600018001EF0E4F90023FB62FB6A1800BD4666
:102770000CB080BD10D1021014D1021018D102107B
:10278000010600001CD102100206000020D1021038
:102790000902000024D102100A02000080B586B0B0
:1027A00000AFF860B9607A603B60BB687A685343F9
:1027B0007B613B681B687A69F9681800FFF75BFA70
:1027C00003003B613B69002B01DA002304E0B96898
:1027D00038691DF0D1F803001800BD4606B080BD71
:1027E00080B586B000AFF860B9607A603B60BB68C6
:1027F0007A6853437B613B681B687A69F968180003
:10280000FFF74AFA03003B613B69002B01DA002322
:1028100004E0B96838691DF0AFF803001800BD4640
:1028200006B080BD80B582B000AF78607B681B6861
:10283000002B04DB7B681B681800FFF70FFA7B682E
:1028400018001EF074F900231800BD4602B080BDC8
:1028500080B584B000AF78607B681B6801220021DE
:102860001800FFF7A1FE0300FB60FB681800BD46DF
:1028700004B080BD80B586B000AFF860B9607A6002
:10288000FB681B687A68B9681800FFF78DFE0300C3
:102890007B617B69002B01DB002301E001235B42AC
:1028A0001800BD4606B080BD80B584B000AF78602A
:1028B00039603B681B68391D01221800FFF7DBF9FE
:1028C0000300FB60FB681800BD4604B080BD80B506
:1028D00082B000AF7860C046BD4602B080BD000047
:1028E000F0B5654CA54402AF7860396079688424FE
:1028F00064003B19FF22180024F004FE5F4B88227D
:1029000092009446BC446344FF22002199543B1931
:1029100018000BF091F9396808257B19FF2218007F
:1029200024F0F0FD564B882292009446BC44634448
:10293000FF22002199547B1918000BF07DF93B19F7
:102940001800FEF771FF030086229200B9180B6091
:10295000BB181B68002B07DA23F008F90300494A6B
:102960001A6001235B4281E084235B00FB1818009E
:10297000FEF7D4FF030085229200BA1813600823E3
:10298000FB181800FEF750FF030084229200B918CC
:102990000B60BB181B68002B07DA23F0E7F8030075
:1029A000384A1A6001235B4260E00823FB181800D4
:1029B000FEF7B4FF03008325AD007A191360842667
:1029C000B600BB191C6885239B00FB181A68862378
:1029D0009B00F91809682C487D192B680093230087
:1029E000FDF70CFD86239B00FB181A68BB191B68BA
:1029F0009A4207D023F0BAF8030012221A6001238A
:102A00005B4233E086239B00FB181B68DBB21F4D43
:102A10007C1983229200BA181268852189007918DE
:102A20000968180000F066FF030023807B191B88EB
:102A3000002B0AD123F09AF8030000221A60002329
:102A400087229200BA1813600CE023F08FF803007D
:102A50000E4ABA1812881A6001235B42872292003C
:102A6000BA18136087239B00FB181B681800BD462B
:102A700089239B009D44F0BDD4FDFFFFE8FEFFFFCE
:102A8000E8FDFFFFED03000028D102100A0200005C
:102A900080B582B000AF084B18001EF033F8030079
:102AA0007B60054A7B68002118001EF055F87B68A2
:102AB0001800BD4602B080BD4406000080B582B05B
:102AC00000AF78607B68002B07D07B68180000F0AF
:102AD0004BF87B6818001EF02AF8C046BD4602B0CD
:102AE00080BD0000B0B584B000AF78600A00FB1C68
:102AF0001A700E217B1800221A80FB1C1A787B6842
:102B00009200D358BB600D007C18BB68180001F020
:102B100003FD0300238029007B181B88002B11D1A3
:102B2000BB68180001F0E9FCFB1C1A787B68920076
:102B30000021D150FB1C1A78094B11001800FDF739
:102B40005DFC06E0FB1C1A78064B11001800FDF72F
:102B500055FC0E23FB181B881800BD4604B0B0BD01
:102B600054D1021070D1021080B584B000AF7860EB
:102B7000104B1800FDF7AAFC0023FB600FE07B68F8
:102B8000FA689200D358002B06D0FB68DAB27B6853
:102B900011001800FFF7A6FFFB680133FB60FB681C
:102BA0000F2BECDD044B1800FDF790FCC046BD4632
:102BB00004B080BD90D10210A4D10210F0B589B04C
:102BC00002AFF8607A603B600B203B180A1C1A7059
:102BD0003B181B780F2B01D91D4B34E016257B19B0
:102BE00000221A8079683A680B26BB191B781948AD
:102BF000FDF76CFC3A687B681100180001F05EFC80
:102C000003003B617C193B69180001F09FFC030045
:102C10002380BB191A78FB6892003969D1507B195F
:102C20001B88002B0CD079683A680B23FB181C78A2
:102C30001623FB181B88084800932300FDF746FC69
:102C40001623FB181B881800BD4607B0F0BDC04610
:102C5000ED030000B8D10210D0D1021090B585B0BC
:102C600000AF78600A00FB1C1A700E23FB180022CC
:102C70001A80FB1C1A78144B11001800FDF726FC73
:102C8000FB1C1A787B689200D358BB60BB68002B92
:102C900008D00E23FC18BB68180001F071FC03007B
:102CA00023800AE0FB1C1A78084B11001800FDF77E
:102CB00077FB0E23FB18064A1A800E23FB181B888D
:102CC0001800BD4605B090BD00D202100CD2021013
:102CD000EA03000080B584B000AF78600023FB6099
:102CE00010E07968FA68402013005B009B18DB0055
:102CF000CB181B181B78002B01D1FB6806E0FB6882
:102D00000133FB60FB683F2BEBDD00231800BD4661
:102D100004B080BD80B586B000AFF8607A600B204B
:102D20003B180A1C1A7000237B613B181B780F2B81
:102D300001D9104B1AE00B23FB181A78FB6892009C
:102D4000D3583B613B69002B08D07A683B6911007E
:102D5000180001F0A0FC03007B6105E0064B1800A1
:102D6000FDF74CFB054B7B617B699BB21800BD46B0
:102D700006B080BDED0300002CD20210EA03000073
:102D8000B0B58AB000AFF8607A603B600B203B18AA
:102D90000A1C1A703B181B780F2B01D93D4B74E0AD
:102DA00000237B62FB681800FFF794FF03003B627F
:102DB0003A6A394B11001800FDF720FB3B6A002BE3
:102DC00057DB3B6A0F2B54DC0B23FB181A78FB688C
:102DD0009200D358FB61FB69002B3DD03A6A130087
:102DE0005B009B18DB004033FA68D318BB611625E3
:102DF0007C19BB693A687968F86901F0DBFB03006C
:102E000023807B191B88002B12D1BB6901221A7009
:102E10000B23FB181A78BB69DA607B68180024F072
:102E200089F903001A00BB699A603B6A7B622BE058
:102E300022F09CFE03001622BA1812881A6022F0B3
:102E400095FE03001A68154B11001800FDF7D6FA1D
:102E500001235B427B6217E0114B1800FDF7CEFAAD
:102E600022F084FE03000F4A1A6001235B427B625A
:102E70000AE022F07BFE030018221A603A6A0A4B2D
:102E800011001800FDF78CFA7B6A1800BD460AB0E5
:102E9000B0BDC046ED03000050D2021068D202104F
:102EA00084D20210EA030000A4D20210B0B586B0AA
:102EB00000AF786039603A68304B11001800FDF7B8
:102EC0009DFA3B68002B02DB3B683F2B0DDD3A6827
:102ED0002B4B11001800FDF7C5FA22F047FE030046
:102EE00009221A6001235B4244E001235B427B61BB
:102EF0003A6813005B009B18DB0040337A68D318F4
:102F00003B613B691B78002B28D03B695B680E2531
:102F10007C193A691100180001F075FB0300238049
:102F20007B191B88002B0ED13B6900221A703B696C
:102F30009B68002B04D03B699B6818001DF0F7FDCF
:102F400000237B6115E001235B427B6122F00EFED2
:102F500003000E22BA1812881A600AE03A68094B78
:102F600011001800FDF71CFA22F000FE03000922F0
:102F70001A607B691800BD4606B0B0BDCCD2021005
:102F8000D8D20210ECD20210F0B58BB002AFF860CC
:102F9000B9607A603B60BA682F4B11001800FDF7EA
:102FA0002DFABB68002B02DBBB683F2B0DDDBA6836
:102FB0002A4B11001800FDF7F3F922F0D7FD0300AA
:102FC00009221A6001235B4241E001235B42FB615D
:102FD000BA6813005B009B18DB004033FA68D31813
:102FE000BB61BB691B78002B25D0BB6958683D6865
:102FF0001626BC197A68B9691023FB1800932B00B8
:1030000001F013FB03002380BB191B88002B07D1A1
:103010003B69FB6122F0AAFD030000221A6015E063
:1030200001235B42FB6122F0A1FD03001622BA18C6
:1030300012881A600AE0BA68094B11001800FDF7FF
:10304000AFF922F093FD030009221A60FB69180012
:10305000BD4609B0F0BDC04610D302101CD302100B
:1030600040D30210F0B58BB002AFF860B9607A605F
:103070003B60BA682F4B11001800FDF7BFF9BB6821
:10308000002B02DBBB683F2B0DDDBA682A4B110019
:103090001800FDF785F922F069FD030009221A6086
:1030A00001235B4241E001235B42FB61BA681300EC
:1030B0005B009B18DB004033FA68D318BB61BB6927
:1030C0001B78002B25D0BB6958683D681626BC19B3
:1030D0007A68B9691023FB1800932B0001F0C0FA3D
:1030E00003002380BB191B88002B07D13B69FB61C0
:1030F00022F03CFD030000221A6015E001235B4230
:10310000FB6122F033FD03001622BA1812881A6000
:103110000AE0BA68094B11001800FDF741F922F0E6
:1031200025FD030009221A60FB691800BD4609B09D
:10313000F0BDC04668D3021070D3021098D30210BD
:1031400090B587B000AFF8607A600B23FB180A1CBB
:103150001A7000237B617B68002B03D07B681B788F
:10316000002B01D11E4B7B600B243B1919787A6828
:103170001C4B1800FDF742F93B191B780F2B24D884
:103180000B23FB181A78FB689200D3583B613B690C
:10319000002B10D07A683B691100180001F08EFAFC
:1031A00003007B617B69002B14D00B23FB181A787A
:1031B0007B691A600EE00C4B1800FDF71FF922F036
:1031C000D5FC0300094A1A6004E022F0CFFC03009A
:1031D000074A1A607B691800BD4607B090BDC0461B
:1031E000C0D30210C4D30210D8D30210EA030000E7
:1031F000ED03000090B585B000AF786039603B68A2
:103200001A680D243B191A700E23FB1800221A802D
:10321000184B1800FDF7F2F83B191B780F2B1DD83F
:103220000D23FB181A787B689200D358BB60BB68EB
:10323000002B0AD00E23FC183A68BB681100180056
:1032400001F04FFA030023800CE00B4B1800FDF750
:10325000D5F80E23FB18094A1A8003E00E23FB1849
:10326000074A1A800E23FB181B881800BD4605B0BC
:1032700090BDC046F8D30210D8D30210EA03000074
:10328000ED03000090B587B000AF786039603B680F
:103290001A6813243B191A7000237B61174B18001E
:1032A000FDF7ACF83B191B780F2B1CD81323FB1828
:1032B0001A787B689200D358FB60FB68002B08D01B
:1032C0003A68FB681100180001F01EFA03007B61E8
:1032D0000EE00B4B1800FDF791F822F047FC0300BD
:1032E000084A1A6004E022F041FC0300064A1A6012
:1032F0007B691800BD4607B090BDC04604D40210DB
:1033000010D40210EA030000ED03000080B588B07D
:1033100000AFF860B9607A603B607A683B68B96872
:103320002748FDF76BF8BB68002B02DBBB683F2B1F
:103330000DDDBA68234B11001800FDF731F822F0BB
:1033400015FC030009221A6001235B4233E00123CC
:103350005B42FB61BA6813005B009B18DB004033E3
:10336000FA68D318BB61BB691B78002B17D0BB6907
:1033700058683B687A68B96901F0D9F903007B6144
:103380007B69013303D101235B42FB6112E022F030
:10339000EDFB030000221A607B69FB610AE0BA685A
:1033A000094B11001800FCF7FBFF22F0DFFB0300C4
:1033B00009221A60FB691800BD4608B080BDC046EE
:1033C0002CD4021070D3021098D3021080B586B0AE
:1033D00000AFF8607A600B203B180A1C1A700123BA
:1033E0005B427B613B181B780F2B06D922F0BEFB9A
:1033F0000300104A1A607B6918E00B23FB181A7847
:10340000FB689200D3583B613B69002B08D07A6877
:103410003B691100180001F0A3F903007B6104E08F
:1034200022F0A4FB0300044A1A607B691800BD4621
:1034300006B080BDED030000EA03000090B587B040
:1034400000AFF860B9607A6022F090FB03000022C0
:103450001A601623FB1800221A80BA68234B110049
:103460001800FCF7CBFFBB68002B02DBBB683F2BCF
:103470000CDDBA681E4B11001800FCF791FF22F01A
:1034800075FB030009221A601A4B2AE0BA68130080
:103490005B009B18DB004033FA68D3183B613B6943
:1034A0001B78002B10D03B695B681622BC187A6829
:1034B0003969180001F07CF9030023803B69DB685F
:1034C0001AB27B681A8009E0BA680B4B1100180029
:1034D000FCF766FF1623FB1809221A801623FB1837
:1034E0001B881800BD4607B090BDC0463CD40210F2
:1034F00070D30210FFFF000098D3021090B587B080
:1035000000AFF860B9607A6022F030FB030000225F
:103510001A601623FB1800221A80BA68204B11008B
:103520001800FCF76BFFBB68002B02DBBB683F2B6E
:103530000CDDBA681B4B11001800FCF731FF22F0BC
:1035400015FB030009221A60174B25E0BA68130027
:103550005B009B18DB004033FA68D3183B613B6982
:103560001B78002B0BD03B695B681622BC187A686D
:103570003969180001F02EF90300238009E0BA68C8
:103580000A4B11001800FCF70BFF1623FB18092249
:103590001A801623FB181B881800BD4607B090BD83
:1035A0003CD4021070D30210FFFF000098D3021029
:1035B00090B587B000AFF8607A603B600B203B1895
:1035C0000A1C1A701623FB1800221A803B181B785D
:1035D0000F2B1ED80B23FB181A78FB689200D358C8
:1035E0003B613B69002B0AD01623FC183A687968C6
:1035F0003B69180001F003F9030023800DE00A4B3A
:103600001800FCF7FBFE22F0B1FA0300074A1A602B
:1036100003E01623FB18064A1A801623FB181B88A2
:103620001800BD4607B090BD10D40210EA03000098
:10363000ED03000090B587B000AFF8607A600B2012
:103640003B180A1C1A701623FB1800221A803B181C
:103650001B780F2B1DD80B23FB181A78FB689200E0
:10366000D3583B613B69002B0AD01623FC187A68BB
:103670003B691100180001F0D7F8030023800CE02B
:10368000094B1800FCF7BAFE1623FB18074A1A80EC
:1036900003E01623FB18064A1A801623FB181B8822
:1036A0001800BD4607B090BD48D40210EA030000E0
:1036B000ED03000080B500AF034B1A68C823DB00A0
:1036C000D3581800BD4680BDA042002080B582B00E
:1036D00000AF0200FB1D1A70FB1D1B780F2B07D8D3
:1036E000084B1A68FB1D1978C823DB00D15005E090
:1036F000044B1A68C823DB000021D150C046BD46E8
:1037000002B080BDA042002090B585B000AFB96086
:103710007A600F217B18021C1A70074B18687C68AE
:10372000BA687B1819782300FFF72AFB03001800FA
:10373000BD4605B090BDC046A042002080B582B015
:1037400000AF7860054B1B687A6811001800FFF71E
:10375000ADFB03001800BD4602B080BDA0420020B2
:1037600080B584B000AFF860B9607A60054B186826
:103770007B68BA68F968FFF707FC03001800BD46CC
:1037800004B080BDA042002080B584B000AFF860D6
:10379000B9607A60054B18687B68BA68F968FFF70A
:1037A00061FC03001800BD4604B080BDA0420020AB
:1037B00080B582B000AF02003960FB1D1A70064B65
:1037C00018683A68FB1D1B781900FFF7A3FA03007D
:1037D0001800BD4602B080BDA042002080B582B076
:1037E00000AF02003960FB1D1A70064B18683A687A
:1037F000FB1D1B781900FFF7A3FC03001800BD4652
:1038000002B080BDA042002080B582B000AF7860D9
:10381000054B1B687A6811001800FFF7EBFC0300EA
:103820001800BD4602B080BDA042002080B582B025
:1038300000AF7860054B1B687A6811001800FFF72D
:1038400021FD03001800BD4602B080BDA04200204B
:1038500080B584B000AFF860B9607A60054B186835
:103860007B68BA68F968FFF751FD03001800BD4690
:1038700004B080BDA042002080B582B000AF02003D
:103880003960FB1D1A70064B18683A68FB1D1B78DF
:103890001900FFF79BFD03001800BD4602B080BD74
:1038A000A042002080B582B000AF78603960064B3E
:1038B0001B683A6879681800FFF7C0FD030018001C
:1038C000BD4602B080BDC046A042002080B582B097
:1038D00000AF78603960064B1B683A687968180059
:1038E000FFF70CFE03001800BD4602B080BDC046C5
:1038F000A042002090B585B000AFB9607A600F217A
:103900007B18021C1A70074B18687C68BA687B1811
:1039100019782300FFF74CFE03001800BD4605B0E0
:1039200090BDC046A042002080B582B000AF02002A
:103930003960FB1D1A70064B18683A68FB1D1B782E
:103940001900FFF777FE03001800BD4602B080BDE6
:10395000A042002080B582B000AF0200FB1D1A70AB
:10396000064B1A68FB1D1B7819001000FFF776F94B
:1039700003001800BD4602B080BDC046A042002032
:1039800080B582B000AF82235B0018001DF0BAF84A
:1039900003007B6082235A007B68002118001DF021
:1039A000DBF87B681800BD4602B080BD80B582B0F0
:1039B00000AF78607B68002B03D07B6818001DF097
:1039C000B6F8C046BD4602B080BDB0B588B002AF03
:1039D000F860B9607A603B60FB681B687B617B695B
:1039E0001C6B7B69D86B7D68BA683968BB6A0093C9
:1039F0002B00A04703001800BD4606B0B0BD90B52F
:103A000085B000AF78607B681B68FB60FB68DC6A90
:103A1000FB68DB6B002200211800A04703001800A0
:103A2000BD4605B090BD80B584B000AF7860396008
:103A30007B681B68FB60FB689A6BFB68DB6B396813
:103A40001800904703001800BD4604B080BDB0B513
:103A500088B002AFF860B9607A603B60FB681B68B1
:103A60007B617B695C6B7B69D86B7D68BA68396800
:103A7000BB6A00932B00A04703001800BD4606B0A8
:103A8000B0BD000080B582B000AF786039607B685F
:103A90003968402218001DF065F87B68B8217A6803
:103AA0005A503B685A6A7B68CC215A503B685A6A24
:103AB0007B68D0215A503B685A6A7B68D4215A509F
:103AC0003B685A6A7B68E0215A503B685A6A7B68B7
:103AD000E4215A503B689A6A7B68D8215A507B6827
:103AE000DC21FA2252005A507B68BC21104A5A50FD
:103AF0007B68C0210F4A5A507B68C4210E4A5A5035
:103B00007B68C8210D4A5A507B68CC229A580C4BCE
:103B100011001800FCF772FC7B68D8229A58094BF8
:103B200011001800FCF76AFCC046BD4602B080BD1B
:103B3000CB3900104F3A0010273A0010FF3900101F
:103B400068D4021080D4021080B582B000AF7860D3
:103B50007B681A00543203D0002B03D1002305E008
:103B6000044B03E07B689BB25B429BB21800BD46EE
:103B700002B080BDE903000080B584B000AF78607A
:103B800039600D4B1800FCF7A1FC7B689B6EFB6055
:103B9000FB6840331A00FB68B8331900100007F0C7
:103BA0003CFF0300BB60BB681800FFF7CDFF0300BC
:103BB0001800BD4604B080BD98D4021080B584B012
:103BC00000AF786039600B4B1800FCF77FFC7B6816
:103BD0009B6EFB60FB684033180007F037FF030063
:103BE000BB60BB681800FFF7AFFF03001800BD46BD
:103BF00004B080BDA4D4021080B584B000AF78605A
:103C00003960144B1800FCF761FC7B689B6EBB604D
:103C1000BB6840331A00BB68B8331900100007F0C6
:103C2000E3FE0300FB60FB68002B0AD1BB68403356
:103C30001A00BB68B8331900100007F0EEFE03004D
:103C4000FB60FB681800FFF77FFF03001800BD460C
:103C500004B080BDB4D4021080B588B000AFF86065
:103C6000B9607A603B600023FB61FB689B6EBB61BF
:103C70003B680322134002D10123FB6109E03B684A
:103C800003221340012B02D10223FB6101E0032335
:103C9000FB613A6880239B00134004D0FB698022BB
:103CA00052001343FB613A6880231B01134004D088
:103CB000FB69802292001343FB613A688023DB009A
:103CC000134004D0FB698022D2001343FB613B68A0
:103CD0000822134004D0FB69802212011343FB61C8
:103CE000FB693A6879681348FCF788FB54201CF09C
:103CF00009FF03007B61BB6940331800FB697A68E8
:103D0000796907F007FF03003B613B69002B03D192
:103D1000BB6A7A691A6103E07B6918001CF007FF2F
:103D20003B691800FFF710FF03001800BD4608B0FC
:103D300080BDC046C0D4021080B588B000AFF86026
:103D4000B9607A603B60FB689B6EFB617B68996839
:103D5000BA6A124B1800FCF751FB7B681B69BB6108
:103D6000FB6940331800BB6A3A68B96907F06CFF19
:103D700003007B617B69002B08DAFB6A00221A6072
:103D80007B691800FFF7E0FE030003E07A69FB6A35
:103D90001A6000231800BD4608B080BDE8D40210A8
:103DA00080B588B000AFF860B9607A603B60FB68AE
:103DB0009B6EFB617B689968BA6A124B1800FCF72E
:103DC0001DFB7B681B69BB61FB6940331800BB6A44
:103DD0003A68B96907F006FF03007B617B69002B35
:103DE00008DAFB6A00221A607B691800FFF7ACFE54
:103DF000030003E07A69FB6A1A6000231800BD46DD
:103E000008B080BD00D5021080B586B000AFF86064
:103E1000B9607A60FB689B6E7B617A680B4B11001E
:103E20001800FCF7EBFA7B6940337A681100180040
:103E300007F022FE03003B613B691800FFF784FE98
:103E400003001800BD4606B080BDC04618D502105C
:103E500080B588B000AFF860B9607A60FB689B6E8F
:103E6000FB617B689A680F4B11001800FCF7C6FADB
:103E70007B681B69BB61FB694033BA69110018009C
:103E800007F080FE03007B61BB6918001CF04FFE49
:103E90007B691800FFF758FE03001800BD4608B004
:103EA00080BDC0462CD5021090B589B000AFF86037
:103EB000B9607A607A682B4B11001800FCF79EFA03
:103EC00021F054FE030000221A60FB689B6EBB6168
:103ED0000023FB6134201CF015FE03007B61BB69ED
:103EE00040337A687969180007F044FF03003B61AA
:103EF0003B69002B21D186235B0018001CF002FED9
:103F00000300FB61FB69002B11D0FB69083318002B
:103F10000223FF331A0000211CF01EFEFB697A69A0
:103F20005A6021F023FE030000221A6014E021F001
:103F30001DFE03000C221A600EE07B6918001CF0C5
:103F4000F6FD3B691800FFF7FFFD03001C0021F0A0
:103F50000DFE030022001A60FB691800BD4609B07F
:103F600090BDC04640D5021080B588B000AFF86063
:103F7000B9607A60174B1800FCF740FA1E23FB1853
:103F800000221A80FB689B6EBB617B685B687B616B
:103F9000BB6940337A691100180007F021FF030064
:103FA0003B613B69002B08D17B6918001CF0BFFD09
:103FB0007B6818001CF0BBFD05E03B699AB21E232C
:103FC000FB1852421A801E23FB181B881800BD469E
:103FD00008B080BD58D5021080B5CAB000AFF860F7
:103FE000B9607A60394B1800FCF708FA0023922276
:103FF0005200BA181360FB689B6E90225200B918E9
:104000000B607B685B688E21490078180360BB18E1
:104010001B6840331022BA1879180968180007F095
:10402000F8FE03008C225200B9180B60BB181B6805
:10403000002B0AD121F09AFD030000221A60002310
:1040400092225200BA18136038E08C235B00FB18F0
:104050001B68002B24DD7B68083318001023FB1835
:104060000833FF22190023F04DFA194B9422520015
:104070009446BC4463441B78022B05D17A688423A0
:104080005B000421D15404E07A6884235B0008219A
:10409000D1547B68083392225200BA1813600DE0A5
:1040A00021F064FD03008C225200BA1812685242BB
:1040B0001A60002392225200BA18136092235B0008
:1040C000FB181B681800BD464AB080BD6CD50210B5
:1040D000E8FEFFFF90B589B000AFF860B9607A6084
:1040E0003B60FB689B6EBB617B6899683A683B6B81
:1040F0001948FCF783F97B681B697B613B6B022BDA
:1041000002D10223FB6107E03B6B012B02D10123AB
:10411000FB6101E00023FB61BB69403318003A6892
:10412000FB69796907F0C2FD03003B613B69002B25
:104130000DDA3B691800FFF707FD03001C0021F0B2
:1041400015FD030022001A6001235B4200E03B6979
:104150001800BD4609B090BD80D5021090B5CBB017
:1041600000AFF860B9607A6001235B42922252008E
:10417000BA18136021F0FAFC030000221A60FB68F1
:104180009B6E902464003A1913607A681C4B1100EE
:104190001800FCF733F93B191B6840331422BA1896
:1041A0007968180007F09BFC03008E225200B918B2
:1041B0000B60BB181B68002B0EDA8E235B00FB180C
:1041C0001B681800FFF7C0FC03001C0021F0CEFCA8
:1041D000030022001A600AE00A4B9422520094461F
:1041E000BC4463445B6892225200BA181360922365
:1041F0005B00FB181B681800BD464BB090BDC04665
:10420000A4D50210ECFEFFFF90B5CBB000AFF86074
:10421000B9607A603B6001235B4292225200BA1877
:10422000136021F0A3FC030000221A60FB689B6E60
:10423000902464003A1913607A682C4B110018001E
:10424000FCF7DCF83B191B6840331422BA18796874
:10425000180007F044FC03008E225200B9180B60CE
:10426000BB181B68002B0EDA8E235B00FB181B6843
:104270001800FFF769FC03001C0021F077FC030025
:1042800022001A6028E01A4B942252009446BC4443
:1042900063445B681A003B681A61154B9422520014
:1042A0009446BC4463441B78022B03D13B68114AFB
:1042B0005A6002E03B68104A5A60BB685B6A1A00A9
:1042C0003B685A64BB689B6A1A003B689A64002387
:1042D00092225200BA18136092235B00FB181B68ED
:1042E0009BB21800BD464BB090BDC046B8D5021079
:1042F000ECFEFFFF774700007787000080B588B0AD
:1043000000AFF860B9607A603B60FB689B6EFB6150
:104310007B681B69BB61FB6940333A68B969180067
:1043200007F0F6FC03007B617B691800FFF70CFCCB
:1043300003001800BD4608B080BD80B586B000AF50
:10434000F860B9607A603B60FB689B6E7B617B695B
:1043500040333A687968180007F0A7FB03003B6117
:104360003B691800FFF7F0FB03001800BD4606B0DC
:1043700080BD80B586B000AFF860B9607A60FB6838
:104380009B6E7B617B694033180007F05CFD030086
:104390003B613B69002B1CDD7B682133FA6811000F
:1043A000180022F0A5FE7B68BA681100180022F000
:1043B0009FFEBB685A6A7B685A64BB689A6A7B68CE
:1043C0009A647B689A6C3B69D21A7B68DA64002332
:1043D00004E03B691800FFF7B7FB03001800BD4677
:1043E00006B080BD80B582B000AF786039603A68B1
:1043F000204B1000190004231A001CF0B3FB3B688B
:104400007A689A663B681C4A5A623B681B4A9A6201
:104410003B681B4ADA623B681A4A1A633B681A4ACD
:104420005A633B68194A9A633B68194ADA633B68E6
:10443000184A1A643B68184A5A643B68174A9A64D7
:104440003B68174ADA643B68164A1A653B68164AA5
:104450005A653B68154A9A653B68154ADA653B68B8
:10446000144A1A663B68144A5A66C046BD4602B0F2
:1044700080BDC046CCD50210793B0010BD3B00107A
:10448000F93B0010593C0010513E0010393D00101E
:10449000A13D0010093E0010A93E0010693F001028
:1044A000D93F0010D54000105D41001009420010B6
:1044B000FD4200103B4300107343001080B584B0F0
:1044C00000AF78603960AC201CF01CFB0300FB607F
:1044D000FB68002B0CD0FB68403379686C22180015
:1044E0001CF040FBFB683968402218001CF03AFBC6
:1044F000FB681800BD4604B080BD80B582B000AF37
:1045000078607B68002B03D07B6818001CF00FFBE1
:10451000C046BD4602B080BDB0B584B000AF786083
:104520000E203B1800221A807B689B6E7A6840320E
:10453000796805003C181000984703002380280084
:104540003B181B881800BD4604B0B0BDB0B584B0A0
:1045500000AF78600E203B1800221A807B685B6EEB
:104560007A684032796805003C18100098470300CB
:10457000238028003B181B881800BD4604B0B0BD3E
:10458000B0B584B000AF78600E203B1800221A80CE
:104590007B68DB6E7A684032796805003C18100051
:1045A00098470300238028003B181B881800BD464D
:1045B00004B0B0BDF0B589B002AFF860B9607A6000
:1045C0003B6016243B1900221A80FB681D6FFB68B4
:1045D00040331800F9683C197E68BA683B6800935C
:1045E0003300A8470300238016243B191B88002BA7
:1045F00002D13B68FA685A601623FB181B88180022
:10460000BD4607B0F0BD80B582B000AF78603960BC
:104610007B685B6F7A684032100079683A68984727
:1046200003001800BD4602B080BDF0B587B002AFF0
:10463000F860B9607A603B60FB689C6FFB68403350
:104640001800F9683B687E68BD68BA6A01920093F9
:1046500033002A00A04703001800BD4605B0F0BD96
:10466000F0B587B002AFF860B9607A603B60FB6874
:10467000DC6FFB6840331800F9683B687E68BD68F2
:10468000BA6A0192009333002A00A0470300180081
:10469000BD4605B0F0BD80B582B000AF786039602E
:1046A0007B6880229B587A684032100079683A68AB
:1046B000984703001800BD4602B080BD80B582B0A7
:1046C00000AF786039607B6884229B587A684032FA
:1046D000100079683A68984703001800BD4602B098
:1046E00080BD80B582B000AF786039607B68882279
:1046F0009B587A684032100079683A6898470300FE
:104700001800BD4602B080BD80B582B000AF7860B1
:1047100039607B688C229B587A6840321000796837
:104720003A68984703001800BD4602B080BDB0B596
:1047300086B002AFF860B9607A603B60FB68902297
:104740009C58FB6840331800F9687D68BA683B687C
:1047500000932B00A04703001800BD4604B0B0BD75
:1047600080B582B000AF786039607B6894229B5836
:104770007A684032100079683A6898470300180058
:10478000BD4602B080BD90B585B000AFF860B9609D
:104790007A60FB6898229C58FB6840331800F968DF
:1047A0007B68BA68A04703001800BD4605B090BDFD
:1047B00080B584B000AFF860B9607A60BB68996872
:1047C0007A68FB681800FFF7DEFF03001800BD469B
:1047D00004B080BD90B585B000AFF860B9607A6074
:1047E000FB689C229C58FB6840331800F9687B6882
:1047F000BA68A04703001800BD4605B090BD90B54B
:1048000085B000AFF860B9607A60FB68A0229C5860
:10481000FB6840331800F9687B68BA68A04703005A
:104820001800BD4605B090BD80B582B000AF78607D
:1048300039607B68A4229B587A68403210007968FE
:104840003A68984703001800BD4602B080BD0000DA
:1048500080B588B000AFF860B9607A601E23FB189D
:1048600000221A807A68F9681A4B1800FBF7C6FD17
:10487000194AFB6811001800FDF738F90300BB6105
:10488000BB69002B17DB7A68B968BB691800FDF7B4
:10489000F2F903007B617A697B689A4206D021F0C5
:1048A00065F903001A681E23FB181A80BB691800FB
:1048B000FDF7D4F906E021F059F903001A681E2328
:1048C000FB181A801E23FB181B881800BD4608B071
:1048D00080BDC046D0D502100106000080B588B06A
:1048E00000AFF860B9607A601E23FB1800221A80BE
:1048F0007A68F968194B1800FBF780FDFB680921FD
:104900001800FDF7F3F80300BB61BB69002B17DB50
:104910007A68B968BB691800FDF7ADF903007B61DF
:104920007A697B689A4206D021F020F903001A6860
:104930001E23FB181A80BB691800FDF78FF906E0EB
:1049400021F014F903001A681E23FB181A801E2395
:10495000FB181B881800BD4608B080BDF4D50210B6
:1049600080B582B000AFEFF310837B6072B67B68D6
:104970001800BD4602B080BD80B582B000AF78603F
:104980007B6883F31088C046BD4602B080BD80B509
:1049900084B000AF786039600C201CF0B3F80300DD
:1049A000FB60FB687A681A60FB683A685A607B684B
:1049B000802252059A18FB689A60FB681800BD4671
:1049C00004B080BD80B582B000AF78607B68002BFA
:1049D00003D07B6818001CF0AAF8C046BD4602B0A0
:1049E00080BD000080B584B000AF78600E23FB1856
:1049F00000221A807B689A68074B1B689A4203D290
:104A0000064B1800FBF7CCFC0E23FB181B88180084
:104A1000BD4604B080BDC0460058031018D6021031
:104A200080B584B000AFF860B9607A6000231800E8
:104A3000BD4604B080BD000080B586B000AFF86010
:104A4000B9607A603B60FB687B61396A3A687B6871
:104A50000B48FBF7D3FC7B681B031A007B699B6840
:104A6000D2183B68D3183B613A6A3969BB681800B1
:104A70001CF078F800231800BD4606B080BDC04683
:104A800044D6021080B588B000AFF860B9607A6093
:104A90003B60FB68FB61B96A3A687B680E48FBF7CC
:104AA000ADFCFB691B687A6812039A183B68D3183F
:104AB000BB61FFF755FF03007B61BB69BA6AB96848
:104AC000180028F091F97B691800FFF755FF0023C3
:104AD0001800BD4608B080BD78D6021080B584B0FD
:104AE00000AF786039607B68FB60FFF739FF030037
:104AF000BB60FB681A683B681B03D21880235B010C
:104B00001900100028F088F9BB681800FFF734FF7F
:104B100000231800BD4604B080BD000080B582B0FF
:104B200000AF786039603A68104B10001900062316
:104B30001A001CF017F83B687A68DA633B68802239
:104B400052015A627B685A683B689A623B68084A1D
:104B5000DA623B68074A1A633B68074A5A633B6854
:104B6000064A9A63C046BD4602B080BDACD602106C
:104B7000214A0010394A0010854A0010DD4A001011
:104B800080B582B000AF786039607A683B68934244
:104B900000D213001800BD4602B080BD80B582B0BF
:104BA00000AF786039607A683B68934200D913009F
:104BB0001800BD4602B080BD80B582B000AF7860FD
:104BC00039607B68396818001AF002FF0B001A0080
:104BD0007B689B1A1800BD4602B080BD80B582B0CC
:104BE00000AF786039607A683B68D318013B3A6857
:104BF00011001800FFF7E0FF03001800BD4602B0E7
:104C000080BD80B582B000AF78607B68013B180042
:104C10001AF044FE03001A0020239B1A1800BD4618
:104C200002B080BD80B582B000AF786078681AF0BD
:104C30003BFE03001800BD4602B080BD80B582B0C7
:104C400000AF786078681AF035FE03001800BD46A2
:104C500002B080BD80B582B000AF786039607A68FC
:104C60003B68D31A1800BD4602B080BD80B582B043
:104C700000AF78607B681800BD4602B080BD80B58B
:104C800082B000AF78607B681800FFF7EFFF030089
:104C90001800BD4602B080BD80B582B000AF78601C
:104CA0007B681BBA1800BD4602B080BD80B582B0DB
:104CB00000AF78607B681800FFF7EEFF0300180074
:104CC000BD4602B080BD80B582B000AF78607B6821
:104CD00018001BF017FF03001800BD4602B080BD8E
:104CE00080B582B000AF78607B6818001BF01FFFB2
:104CF000C046BD4602B080BD80B582B000AF7860CE
:104D000039603B68012252421A60C046BD4602B07B
:104D100080BD80B582B000AF786039603B68D868EC
:104D20007B689B6E9B6A1A00FF211BF015FF3B6896
:104D3000012252421A60C046BD4602B080BD00004A
:104D4000B0B58AB002AFF860B9607A603B60BB6B07
:104D5000FB61FB689B6E1B6A3A6B9A4208D27A6BC6
:104D6000FB6BD218FB689B6EDB699A4200D827E187
:104D700054235B4229E1FB6BBB61BB68002B43D032
:104D8000BB681B683A6B9A423ED1BB685A68BB68E5
:104D90009B68D3187A6B9A4236D2BB685B687A6B91
:104DA0009A4226D3BB689A68BB6859687B6BCB1A5A
:104DB000D218BB6911001800FFF7F0FE0300BB61B9
:104DC000BB68DA68BB685B68796BCB1AD118BA69C3
:104DD000FB6918001BF0C6FEFA69BB69D318FB61BA
:104DE0007A6BBB69D3187B63FA6BBB69D31AFB631D
:104DF000E6E0BB685A687B6BD21ABB6911001800E9
:104E0000FFF7CCFE0300BB617B681B683A6B9A42DC
:104E10003ED17B685A687B689B68D3187A6B9A424C
:104E200036D27B685B687A6B9A4226D37B689A6835
:104E30007B6859687B6BCB1AD218BB6911001800CC
:104E4000FFF7ACFE0300BB617B68DA687B685B68D8
:104E5000796BCB1AD118BA69FB6918001BF082FE76
:104E6000FA69BB69D318FB617A6BBB69D3187B63A2
:104E7000FA6BBB69D31AFB63A2E07B685A687B6B51
:104E8000D21ABB6911001800FFF788FE0300BB614E
:104E9000FA6B3B689A4239D3FB689B6E5A697B6B0D
:104EA000110018001AF094FD0B1E2FD1FB689B6EA9
:104EB0005B69FA6B9A4229D3FB689B6E5A69BB699E
:104EC00011001800FFF778FE0300BB61FB689B6EC2
:104ED0005C68FB68986EFD697A6B396BBB690093FF
:104EE0002B00A04703007B617B69002B01D07B690D
:104EF0006BE0FA69BB69D318FB617A6BBB69D318A5
:104F00007B63FA6BBB69D31AFB6359E0FB689B6E4A
:104F10001B6A3A6B9A4205D32E4B2F4A2F485A21CF
:104F200018F00EF87B683A6B1A60FB689B6E5A6942
:104F30007B6B11001800FFF73FFE02007B685A6090
:104F40007A6B3B68D218FB689B6E5B691900100096
:104F5000FFF744FE0200FB689B6EDB69190010003E
:104F6000FFF71CFE02007B685B68D21AFB689B6E31
:104F70009B6A19001000FFF711FE02007B689A601F
:104F8000FB689B6E5C68FB68986E7B6819687B6841
:104F90005A687B68DD687B689B6800932B00A0479C
:104FA00003003B613B69002B05DD0D4B0A4A0B48B2
:104FB000652117F0C5FF3B69002B01D03B6904E078
:104FC000FB6B002B00D0D6E600231800BD4608B0CE
:104FD000B0BDC046B4D60210B4DE0210D4D6021062
:104FE00000D70210B0B58EB004AFF860B9607A6037
:104FF0003B603B6C3B620023FB6100237B623DE036
:105000007A6C7B6AD31A08211800FFF7C7FD0300EA
:10501000FB613A687B6AD51AFA6B7B6AD3187C68A5
:10502000B968F868FA6903921022BA1802920193DB
:10503000BB6B00932B002200FFF782FE0300BB61D5
:10504000BB69002B01D0BB691DE03A6A7B6AD118AD
:10505000FA691023FB18180027F0BEFE0300BB619D
:10506000BB69002B06D0BB69002B01DA01230AE0E3
:10507000022308E07A6AFB69D3187B627A6A7B6C48
:105080009A42BDD300231800BD460AB0B0BD00004F
:10509000F0B58DB004AFF860B9607A601A00FB1CFF
:1050A0001A70BB681B6801336BD0BB681B68023386
:1050B00067D0BB681A68FB689B6E1B6A9A4205D36F
:1050C000324B334A3348932117F03AFFBB689A6852
:1050D000FB689B6E9B6919001000FFF77FFD0300C2
:1050E000FB61FB689B6E9C68FB68986EBB681968E7
:1050F000BB685A68BB68DD68FB6900932B00A0475A
:105100000300BB61BB69002B05DD234B204A21480E
:10511000972117F015FFBB69002B01D0BB6931E067
:10512000FB1C1B78002B26D07A68FB681100180046
:10513000FFF7E2FDBB681A68BB685968BB68DB68AB
:10514000FE697D68FC68F869039002930191009202
:1051500033002A0000212000FFF744FF03007B6199
:105160007B69002B01DA7B690CE07B69002B02D0A4
:1051700054235B4206E0BA68FB6811001800FFF791
:10518000C8FD00231800BD4609B0F0BD0CD70210C1
:10519000C0DE0210D4D6021000D7021080B586B04F
:1051A00000AFF860B9607A601A00FB1C1A707A6868
:1051B000FB6811001800FFF79FFDFB1C1B787A6845
:1051C000B968F868FFF764FF03007B617B69002B17
:1051D00001D07B6912E0FB689B6E1A69FB689B6ECD
:1051E0001800904703007B617B69002B05DD054BB0
:1051F000054A0648BD2117F0A3FE7B691800BD468D
:1052000006B080BD00D70210D0DE0210D4D6021046
:1052100080B588B000AFF860B9607A601A00FB1CF6
:105220001A703B6BFB61BB6A02330BD0FB689B6E51
:105230001B6ABA6A9A4205D3494B4A4A4A48C8216E
:1052400017F07EFEFA6A7B6BD218FB689B6EDB69F7
:105250009A4200D87BE0454B424A4348C92117F0A7
:105260006FFEBB681B68BA6A9A4255D1BB685B681F
:10527000FA6A9A4250D3BB685A68FB689B6E9B6A75
:10528000D318FA6A9A4247D2FB689B6E9A6ABB6847
:105290005968FB6ACB1AD2187B6B11001800FFF714
:1052A0007DFC0300BB61BB68DA68BB685B68F96AB8
:1052B000CB1AD318BA69F96918001BF053FCFA69C4
:1052C000BB69D318FB61FA6ABB69D318FB627A6BBE
:1052D000BB69D31A7B63BB689868BB685B68FA6A72
:1052E000D31A1900FFF74CFC0200BB689A60BB6838
:1052F0009A68FB689B6E9B6A9A4228D1FB1C1B78BC
:105300007A68B968F868FFF7C3FE03007B617B69C0
:10531000002B1CD07B691EE0BB681B68013305D0E5
:10532000134B104A1048E62117F00AFEBB68BA6A10
:105330001A60FB689B6E9A69FB6A11001800FFF700
:105340003BFC0200BB685A60BB6800229A607B6B22
:10535000002B86D100231800BD4608B080BDC04692
:1053600034D70210DCDE0210D4D6021070D702103F
:1053700094D7021080B584B000AF786039607B6844
:105380009B6E1B6A3A689A4205D30F4B0F4A10482E
:10539000F42117F0D5FD7B689B6EDA687B689B6E05
:1053A0003968180090470300FB60FB68002B05DD9F
:1053B000084B064A0648F62117F0C2FDFB681800A4
:1053C000BD4604B080BDC046B4D60210E8DE02106F
:1053D000D4D6021000D7021080B584B000AF786038
:1053E0007B681B68FB607B685A687B681A607B6817
:1053F0000433FA681A60C046BD4604B080BD80B56B
:1054000082B000AF78607B681B68013304D07B6892
:1054100004331B68013301D1012300E000231A1C6F
:1054200001231340DBB21800BD4602B080BD80B539
:1054300082B000AF786039607B681A683B681B688F
:105440009A4217D07B6804331A683B6804331B68A0
:105450009A420FD07B681A683B6804331B689A42F3
:1054600008D07B6804331A683B681B689A4201D0F5
:10547000012300E000231800BD4602B080BD80B5C6
:1054800082B000AF786039607B681A683B681B683F
:105490009A4207D17B6804331A683B6804331B685F
:1054A0009A420DD07B681A683B6804331B689A42A5
:1054B00008D17B6804331A683B681B689A4201D1A3
:1054C000012300E000231A1C01231340DBB2180063
:1054D000BD4602B080BD90B583B000AF78607B68F8
:1054E0001B681800FFF7C2FB02007B681A607B682C
:1054F00004331A687B681C1D1000FFF7B7FB03001C
:105500002360C046BD4603B090BD90B583B000AFE8
:1055100078607B681B681800FFF7B1FB02007B68AE
:105520001A607B6804331A687B681C1D1000FFF743
:10553000A6FB03002360C046BD4603B090BD80B506
:1055400082B000AF78607B68DB43DB0FDBB2180012
:10555000BD4602B080BD80B582B000AF78607B6888
:105560009B059B1501335A425341DBB21800BD46DF
:1055700002B080BD80B582B000AF78607B681B0D43
:105580009AB2E023DB0013409BB21800BD4602B084
:1055900080BD80B582B000AF78607B681B0D9BB288
:1055A0005B055B0D9BB21800BD4602B080BD80B5A7
:1055B00082B000AF78607B681B0DDBB21800BD467F
:1055C00002B080BD80B582B000AF78607B68180003
:1055D000FFF7EDFF03005BB21800BD4602B080BDCF
:1055E00080B582B000AF78607B689B0A9BB29B0558
:1055F0009B0D9BB21800BD4602B080BD80B582B045
:1056000000AF78607B689B059B0D1800BD4602B01B
:1056100080BD80B582B000AF78607B681800FFF76E
:105620009AFF03001A007B68D3181800FFF7E6FF03
:10563000030004331800BD4602B080BD80B584B0BD
:1056400000AF786039600023FB6012E0FB689B00CC
:105650007A68D3181968FB689B003A68D3181A68EF
:10566000FB689B007868C3184A401A60FB680133E6
:10567000FB60FB68022BE9DDC046BD4604B080BD7F
:1056800080B584B000AF78600023FB600BE0FB685E
:105690009B007A68D3181B68002B01D0002306E01A
:1056A000FB680133FB60FB68022BF0DD012318006F
:1056B000BD4604B080BD80B582B000AF78607B6825
:1056C0001B681800FFF79AFF03005A1E9341DBB2D4
:1056D0001800BD4602B080BD80B582B000AF7860D2
:1056E0007B681B681800FFF789FF0300DBB2180016
:1056F000BD4602B080BD80B582B000AF78607B68E7
:105700001B681800FFF736FF03005A1E9341DBB2F7
:105710001800BD4602B080BD80B582B000AF786091
:1057200039607B681B681800FFF724FF031E0AD04E
:105730007B6804333A6811001800FFF778FE031EF7
:1057400001D1012300E000231A1C01231340DBB226
:105750001800BD4602B080BD80B582B000AF786051
:105760007B681B681800FFF781FA02007B681A60EB
:105770007B685B681800FFF779FA02007B685A6063
:105780007B689B681800FFF771FA02007B689A60DB
:10579000C046BD4602B080BD80B582B000AF786023
:1057A0007B681B681800FFF76AFA02007B681A60C2
:1057B0007B685B681800FFF762FA02007B685A603A
:1057C0007B689B681800FFF75AFA02007B689A60B2
:1057D000C046BD4602B080BD80B582B000AF7860E3
:1057E0007B681B681800FFF741FA02007B681A60AB
:1057F0007B685B681800FFF739FA02007B685A6023
:10580000C046BD4602B080BD80B582B000AF7860B2
:105810007B681B681800FFF732FA02007B681A6089
:105820007B685B681800FFF72AFA02007B685A6001
:10583000C046BD4602B080BD80B582B000AF786082
:105840007B681B681800FFF711FA02007B681A607A
:105850007B685B681800FFF709FA02007B685A60F2
:105860007B689B681800FFF701FA02007B689A606A
:105870007B68DB681800FFF7F9F902007B68DA60E3
:105880007B681B691800FFF7F1F902007B681A6159
:105890007B685B691800FFF7E9F902007B685A61D1
:1058A000C046BD4602B080BD80B582B000AF786012
:1058B0007B681B681800FFF7E2F902007B681A603A
:1058C0007B685B681800FFF7DAF902007B685A60B2
:1058D0007B689B681800FFF7D2F902007B689A602A
:1058E0007B68DB681800FFF7CAF902007B68DA60A2
:1058F0007B681B691800FFF7C2F902007B681A6118
:105900007B685B691800FFF7BAF902007B685A618F
:10591000C046BD4602B080BD80B584B000AF78609F
:1059200039603B1DFB6009E0FB681B683A689A42DE
:1059300001D1012307E0FB681B68FB60FB681B6863
:10594000002BF1D100231800BD4604B080BD80B506
:1059500084B000AF786039607B682833FB600DE06D
:10596000FB681B683A689A4205D1FB681B681A6895
:10597000FB681A6006E0FB681B68FB60FB681B683D
:10598000002BEDD1C046BD4604B080BD80B582B0CD
:1059900000AF786039607B689A6A3B681A607B6800
:1059A0003A689A62C046BD4602B080BD80B584B0F8
:1059B00000AF786039607B68FB60FB685B6D3A68BC
:1059C000D21AFB689B6E1B6AD218FB689B6E1B6A1F
:1059D0001900100019F0FCFF0B00BB60FB689B6D09
:1059E000BA689A4212D2FB68596EBB685B099A008A
:1059F0008A181068BA681F210A4001219140FA688C
:105A0000526E9B00D31802000A431A60002318004C
:105A1000BD4604B080BD80B582B000AF78607B68C1
:105A20009B6E1A6A7B681A66C046BD4602B080BD8E
:105A300080B582B000AF78607B6800229A657B6891
:105A40000022DA657B681800FFF7E5FFC046BD4617
:105A500002B080BD90B587B002AF786039604EE08B
:105A60007B68DB6DBB607B68DB6D5A1C7B68DA652D
:105A70007B681B6E5A1E7B681A667B685A6EBB6811
:105A80005B099B00D3181B68BA681F210A400121DB
:105A900091400A00134032D17B685A6DBB68D2181E
:105AA0007B689B6E1B6A1900100019F091FF0B00B8
:105AB0001A003B681A6009E07B68DB6D5A1C7B6842
:105AC000DA657B681B6E5A1E7B681A667B68DA6D26
:105AD0007B689B6D9A4210D07B685A6E7B68DB6D49
